:100000000C9434000C9449000C9449000C94490061
:100010000C9449000C9449000C9449000C9449003C
:100020000C9449000C9449000C9449000C9449002C
:100030000C9449000C9449000C9449000C9449001C
:100040000C9449000C9449000C9449000C9449000C
:100050000C9449000C9449000C9449000C944900FC
:100060000C9449000C94490011241FBECFEFD8E036
:10007000DEBFCDBF11E0A0E0B1E0EAE3F1E002C0F5
:1000800005900D92AE31B107D9F70E9471000C9422
:100090009B000C9400001092C5008FEC8093C4006C
:1000A00086E08093C20088E18093C100089590911A
:1000B000C00095FFFCCF8093C60008950F931F9357
:1000C000CF938C01C0E0F801EC0FF11D80818823F3
:1000D00021F00E945700CF5FF6CFCF911F910F9173
:1000E0000895CF93DF93CDB7DEB76E970FB6F89430
:1000F000DEBF0FBECDBF8AE1E0E0F1E0DE01119688
:1001000001900D928A95E1F7FE017B9684E0DF0174
:100110001D928A95E9F70E944B00CE0101960E943C
:100120005E00BFEF23ED80E3B15020408040E1F757
:0A01300000C00000F2CFF894FFCFEA
:10013A0048656C6C6F2C204C6F6769635F416E6118
:0E014A006C797A657220210D0A000000000019
:00000001FF
